:0E1057003F065B4F666D7D077F6F0000000057
:100F320042001F0000410005004100090041000875
:100F42003241000400C101C104C10243000A010090
:010F52000D91
:03000600D2932270
:0807330090003EEEF0A3EFF090
:10073B00E4A3F078417C007D017BFF7A107961FEA8
:10074B007F0412042090003EE0FAA3E0FB7C037DC3
:10075B00E8FFAE021204AE74572FF58274103EF50B
:10076B0083E493900041F07C037DE8AF03AE02126B
:10077B0004AEAA04AB057D647C00AF03AE02120489
:10078B00AE74572FF58274103EF583E493900042BC
:10079B00F07D647C00AF03AE021204AEAA04AB057D
:1007AB007D0A7C00AF03AE021204AE74572FF582A4
:1007BB0074103EF583E493900043F07D0A7C00AF08
:1007CB0003AE021204AE74572DF58274103CF58300
:1007DB00E493900044F0E4FF74412FF582E434007D
:1007EB00F583E0FE901057E493FDEEB505117441CF
:1007FB002FF582E43400F583E4F00FEFB403D9E472
:10080B00900040F0900040E0FEC39404505F7410E1
:10081B00A806088002C333D8FCFFE580540F4FF5C0
:10082B0080E4FF900040E0FE2441F582E43400F5C3
:10083B0083E0FD339280C283D28374412EF582E430
:10084B003400F583ED25E0F00FEFB408D6C282D269
:10085B0082121065C280E4FFC283D2830FEFB4080B
:0D086B00F7C282D282900040E004F0809736
:01087800225D
:10104600438E805389F0758ACD758CD4C28DD28C2F
:011056002277
:03000300020FE207
:100FE200C0E0C083C082900020E004F07006900050
:0B0FF2001FE004F0D082D083D0E0327A
:03000B00020B4D98
:100B4D00C0E0C0F0C083C082C0D075D000C000C06E
:0D0B5D0001C002C003C004C005C006C007EF
:100B6A00900000E475F001120503FEC3E5F094E875
:100B7A00EE9403402B900000E4F0A3F0D200900022
:100B8A001FE0FEA3E0FF900006EEF0A3EFF0900056
:100B9A001FE4F0A3F0120FFD900008E0FF121030DE
:100BAA00900002E475F001120503FEC3E5F0940A11
:100BBA00EE94004009D203900002E4F0A3F0900002
:100BCA0009E004F0900008E0FFA3E0FEC39F500292
:100BDA00D296EEC39F4002C296EED394644005902B
:040BEA000009E4F02A
:100BEE00D007D006D005D004D003D002D001D0005B
:0B0BFE00D0D0D082D083D0F0D0E03205
:100F7500E4900006F0A3F090000AE0FBA3E0FAA3DA
:100F8500E0F9120FAC7594F0439288C281121046B5
:100F950012000EC293C296D288D2A8D2A9D2A9D2E3
:070FA500A8D2AF75A0FF22E6
:10097A00120F75300302C203200003020A65C20087
:10098A00C293900005E06003020A65A3E0FEA3E0BB
:10099A00FF90000AE0FBA3E0FAA3E0F912087990BD
:1009AA00003CEEF0A3EFF0FDAC06EC120296E4FB7D
:1009BA00FAF9783F12011EC004C005C006C00790AC
:1009CA000008E0FCE412029BD003D002D001D00060
:1009DA0012002DE4FBFA79C87842120224607C40A6
:1009EA007A90003CE0FCA3E0FDEC120296E4FBFAEC
:1009FA00F9783F12011EC004C005C006C007900066
:100A0A0008E0FCE412029BD003D002D001D000120D
:100A1A00002DE4FBFAF9F8120224503F900005E099
:100A2A00703990003CE0FCA3E0FDEC120296E4FB76
:100A3A00FAF9783F12011EC004C005C006C007902B
:100A4A000008E0FCE412029BD003D002D001D000DF
:100A5A0012002D1202CF900008EFF0900006E0FE7F
:090A6A00A3E0FF12073302097D2D
:0B1065000000007F017E85DEFEDFFC46
:01107000225D
:100FAC0090000EE4F5F012059B900010E4F5F012A1
:100FBC00059B900002120642401333339000061238
:100FCC0006423F99999A90000A1206423DCCCCCD2C
:060FDC00E4F5F002057CC3
:0B08790090003EEBF0A3EAF0A3E9F0D2
:1008840090003EE0FBA3E0FAA3E0F9120519C39F30
:10089400FFE5F09E900041F0A3EFF090000E1205EA
:1008A40044FDACF0EC12029690003EE0FBA3E0FAAB
:1008B400A3E0F990000612060612011EC004C0054A
:1008C400C006C00790003EE0FBA3E0FAA3E0F99065
:1008D40000021205D6C004C005C006C0079000413E
:1008E400E0FCA3E0FDEC120296A804A905AA06AB5D
:1008F40007D007D006D005D00412011ED003D002C1
:10090400D001D000120029C004C005C006C0079061
:10091400003EE0FBA3E0FAA3E0F9900010120544C6
:10092400FDACF0EC12029690003EE0FBA3E0FAA3CB
:10093400E0F990000A12060612011ED003D002D07C
:1009440001D00012002D1202CF90003EE0FBA3E084
:10095400FAA3E0F990000E120544FD900010E5F0B2
:100964008DF012059B900041E0FDA3E090000ECDB8
:050974008DF012059B4F
:01097900225B
:100F530054004600000000000000000000000000F4
:100F63000000000000000041005A0041004500C19C
:010F73000578
:0B0D3E0090002EEBF0A3EAF0A3E9F018
:100D4900E4900034F0900031E0F9A3E0FAA3E090D8
:100D59000035C9F0A3EAF0A3E9F09000347403F078
:100D6900900034E0FFC364809480403BEF3395E00A
:100D7900FE90002EE0FBA3E0FAA3E02403F9E43A95
:100D8900FAC3E99FF9EA9EFA120446FD900035E09C
:100D9900FBA3E0FAA3E0F98F828E83ED12048C9015
:070DA9000034E014F080B9F2
:010DB0002220
:0B0DB10090002EEBF0A3EAF0A3E9F0A5
:100DBC00E4900034F0900031E0F9A3E0FAA3E09065
:100DCC000035C9F0A3EAF0A3E9F09000347401F007
:100DDC00900034E0FFC364809480403BEF3395E097
:100DEC00FE90002EE0FBA3E0FAA3E02401F9E43A24
:100DFC00FAC3E99FF9EA9EFA120446FD900035E029
:100E0C00FBA3E0FAA3E0F98F828E83ED12048C90A1
:070E1C000034E014F080B97E
:010E230022AC
:10000E0053877F759850438E04759CFD438E014334
:05001E008E10D2AC229F
:03002300020C09C3
:100C0900C0E0C0F0C083C082C0D075D000C000C0B1
:0D0C190001C002C003C004C005C006C00732
:100C260090002DE4F0309864C298E599F0300540C4
:100C360090005AE0FF701390002DE090005AF0FDEE
:100C4600900006E4F0A3EDF0804290002DE0FE90C7
:100C56000045E0FD04F074462DF582E43400F5838A
:100C6600EEF0900045E0B50723C205120A73801C1A
:100C760090002DE0B4FF15200512D20590005AE42D
:100C8600F0900045F0900006F0A304F0309902C2FF
:010C960099C4
:100C9700D007D006D005D004D003D002D001D000B1
:0B0CA700D0D0D082D083D0F0D0E0325B
:100A7300900046E024F0602424F0602F24FC604FB3
:100A830024FE7003020B3E2497600C249F60030234
:100A93000B4CD2A9D2A822C2A9C2A82290000574E5
:100AA30001F0900047E0900008F02290000AE0F97E
:100AB300A3E0FAA3E0900031C9F0A3EAF0A3E9F0C0
:100AC3007B017A007947120DB1E4900005F0229082
:100AD300000AE0FBA3E0FAA3E02402F9E43AFA9067
:100AE3000031EBF0A3EAF0A3E9F07B017A00794748
:100AF300120D3E90000AE0FBA3E0FAA3E02406F9FE
:100B0300E43AFA900031EBF0A3EAF0A3E9F07B01B9
:100B13007A00794B120D3E90000AE0FBA3E0FAA3A2
:100B2300E0240AF9E43AFA900031EBF0A3EAF0A3E7
:100B3300E9F07B017A00794F020D3E90000AE0FB59
:0A0B4300A3E0FAA3E0F9120EDC2291
:101017001204466013F5997F64AE071FEE70FA74E9
:081027000129F9E43AFA80E81E
:01102F00229E
:0A1071007E648F99AF061EEF70FA3F
:01107B002252
:060E850090003112063658
:100E8B009000357401F0A37400F0A37431F07B640F
:100E9B00900031E0FCA3E0FDA3E0FEA3E0FF900097
:100EAB00381206367F03900035E0FBA3E0FAA3E08F
:100EBB00F9EFFD3395E08D82F58312045FF5997B95
:100ECB0064AE031BEE70FA1FC3EF6480948050D6A0
:010EDB0022F4
:080E2400900023EEF0A3EFF0B3
:100E2C00A37401F0A37400F0A37423F0E4FFA37483
:100E3C0064F0900023E0FCA3E0FDEC12029690001D
:100E4C00291206367F01900025E0FBA3E0FAA3E00F
:100E5C00F9EFFD3395E08D82F58312045FF59990DF
:100E6C0000287464F0900028E0FE14F0EE70F61F79
:080E7C00C3EF6480948050CEA6
:010E8400224B
:100FFD00AD07AC067FFF1210717F031210717F25B4
:0A100D00121071AE04AF05020E24AC
:10103000AD077FFF1210717F021210717F2712100F
:0610400071AF0502107102
:100EDC0090002EEBF0A3EAF0A3E9F07FFF12107163
:100EEC007F0D1210717F2612107190002EE0FBA363
:100EFC00E0FAA3E0F99000021205D6120E859000DC
:100F0C002EE0FBA3E0FAA3E0F99000061205D6123E
:100F1C000E8590002EE0FBA3E0FAA3E0F990000A06
:060F2C001205D6020E853D
:1000260002033BE86480F8E933E83360110460F0CA
:10003600ED33EC337009E8FCE9FDEAFEEBFF220440
:1000460060DED3EB9FEA9EE99DE8C2E78CF0C2F73B
:1000560095F0400CE8CCF8E9CDF9EACEFAEBCFFB07
:1000660012030685D0F05804700320D5B3E8047057
:10007600075002B2D502034592D5EC0460F7E4CCF2
:10008600C0E0C398F8603B94186008400DD0E0FBD0
:1000960002031DE4FBFAC9FC8028E830E406E4C943
:1000A600FBE4CAFCE830E305E4C9CACBFCE8540724
:1000B6006010F8C3E913F9EA13FAEB13FBEC13FC2F
:1000C600D8F130F52FC3E49CFCEF9BFFEE9AFEEDD2
:1000D60099FDD0E0FBEF4E4D4C701222DB0302037C
:1000E60042EC2CFCEF33FFEE33FEED33FDED30E753
:1000F600EB02031DEF2BFFEE3AFEED39FDD0E0FBE0
:1001060050130BBB0003020345ED13FDEE13FEEF88
:0801160013FFEC13FC02031DB2
:10011E00EC4D6011E8497017ED33EC3304600DE4DB
:10012E00FCFFFEFD22E933E8330470F802033B12B4
:10013E00030658046009E4CC2481500628500902B5
:10014E000345284003020342C0E0EB4A7044B980E5
:10015E0006D0E0FB020331EF4E701CBD8008EBFFB2
:10016E00EAFEE9FD80EBE98DF0A4FEE5F002020760
:10017E00E9CDF9EAFEEBFFEF89F0A4FCE5F0CE89BC
:10018E00F0A42EFFE435F0CD89F0A42DFEE435F079
:10019E008067EF4E7005BD80D780C3EF8BF0A4ACA7
:1001AE00F0EE8BF0A42CFCE435F0F8EF8AF0A42CE2
:1001BE00E5F038FCE433CB8DF0A42CFCE5F03BF8F5
:1001CE00EE8AF0A42CFCE5F038F8E433CF89F0A4E5
:1001DE002CFCE5F038CF3400CE89F0A42FFFE5F0EB
:1001EE003EFEE433C98DF0A42EFEE5F039CD8AF043
:1001FE00A42FFFE5F03EFEE43DFD33D0E0FB5007BB
:10020E000BBB000F020345EC2CFCEF33FFEE33FE6D
:06021E00ED33FD02031D9B
:1002240074F8CC6480CCC86480C8F582046043C38D
:10023400EB9FF5F0EA9E42F0E99D42F0E89C45F020
:1002440060305018E5825FFFE582F42B5582FB5045
:10025400210ABA001D09B90019088016E5825BFB62
:10026400E582F42F5582FF50090EBE00050DBD0036
:10027400010CC3EB9FF5F0EA9E42F0E99D42F0E8E1
:0D0284009C45F06007CC4820E701B3EC2258
:1002910075F020800E75F010800575F0087D007EE8
:1002A100007F003392D530D5031205C8EC334010DE
:1002B100EF33FFEE33FEED33FDEC33FCD5F0ED22F1
:0E02C100E5F0247EA2D513CC92E7CDCEFF222D
:1002CF00EDD2E7CD33EC3392D524814006E4FFFE27
:1002DF00FDFC22FCE4CFCECDCC24E0501174FF8086
:1002EF00EDC3CC13CCCD13CDCE13CECF13CF047023
:0702FF00F030D5DE0205C856
:10030600E9D2E7C933E833F892D5EDD2E7CD33EC3D
:0703160033FC5002B2D522B6
:10031D00EC30E7100FBF000C0EBE00080DBD000441
:10032D000BEB6014A2D5EB13FCED92E7FD2274FFED
:10033D00FCFDFEFF22E480F8A2D574FF13FC7D8046
:03034D00E480EF5A
:03000000020CB23D
:0C0CB200787FE4F6D8FD758120020CF973
:10035000E709F608DFFA8046E709F208DFFA803E8F
:1003600088828C83E709F0A3DFFA8032E309F6087C
:10037000DFFA8078E309F208DFFA807088828C83E4
:10038000E309F0A3DFFA806489828A83E0A3F60898
:10039000DFFA805889828A83E0A3F208DFFA804C72
:1003A00080D280FA80C680D4806980F28033801049
:1003B00080A680EA809A80A880DA80E280CA8033B2
:1003C00089828A83ECFAE493A3C8C582C8CCC5832A
:1003D000CCF0A3C8C582C8CCC583CCDFE9DEE780FA
:1003E0000D89828A83E493A3F608DFF9ECFAA9F079
:1003F000EDFB2289828A83ECFAE0A3C8C582C8CCCF
:10040000C583CCF0A3C8C582C8CCC583CCDFEADEE7
:10041000E880DB89828A83E493A3F208DFF980CC49
:1004200088F0EF60010E4E60C388F0ED2402B40442
:100430000050B9F582EB2402B4040050AF232345E9
:0604400082239003A0736B
:10044600BB010689828A83E0225002E722BBFE02B4
:09045600E32289828A83E49322E7
:10045F00BB010CE58229F582E5833AF583E0225052
:10046F0006E92582F8E622BBFE06E92582F8E2229C
:0D047F00E58229F582E5833AF583E49322B6
:10048C00F8BB010DE58229F582E5833AF583E8F0A6
:10049C00225006E92582C8F622BBFE05E92582C852
:0204AC00F2223A
:1004AE00BC000BBE0029EF8DF084FFADF022E4CC32
:1004BE00F875F008EF2FFFEE33FEEC33FCEE9DECFB
:1004CE00984005FCEE9DFE0FD5F0E9E4CEFD22ED41
:1004DE00F8F5F0EE8420D21CFEADF075F008EF2F8B
:1004EE00FFED33FD4007985006D5F0F222C398FD7C
:0504FE000FD5F0EA2219
:10050300C5F0F8A3E028F0C5F0F8E5821582700283
:060513001583E038F02220
:10051900BB010A89828A83E0F5F0A3E022500687AD
:10052900F009E71922BBFE07E3F5F009E31922896F
:0B053900828A83E493F5F074019322A2
:10054400BB0110E58229F582E5833AF583E0F5F0F5
:10055400A3E0225009E92582F886F008E622BBFED2
:100564000AE92582F8E2F5F008E222E5832AF58318
:08057400E993F5F0A3E99322DD
:10057C00BB010A89828A83F0E5F0A3F0225006F7CA
:0F058C0009A7F01922BBFE06F3E5F009F31922C7
:10059B00F8BB0111E58229F582E5833AF583E8F092
:1005AB00E5F0A3F0225009E92582C8F608A6F0224F
:0D05BB00BBFE09E92582C8F2E5F008F22236
:0E05C800C3E49FFFE49EFEE49DFDE49CFC2244
:1005D600BB010DE58229F582E5833AF583020672B1
:1005E6005007E92582F8020666BBFE07E92582F870
:1005F60002067EE58229F582E5833AF58302068ABC
:10060600BB010DE58229F582E5833AF5830206A74B
:100616005007E92582F802069ABBFE07E92582F80B
:100626000206B3E58229F582E5833AF5830206C020
:0C063600ECF0A3EDF0A3EEF0A3EFF02237
:10064200BB010DE58229F582E5833AF5830206E9CD
:100652005007E92582F80206D0BBFE07E92582F899
:0406620002071A224F
:100CBE0002097AE493A3F8E493A34003F68001F2C9
:100CCE0008DFF48029E493A3F85407240CC8C33337
:100CDE00C4540F4420C8834004F456800146F6DF06
:100CEE00E4800B0102040810204080900F32E47E55
:100CFE00019360BCA3FF543F30E509541FFEE493FB
:100D0E00A360010ECF54C025E060A840B8E493A3C1
:100D1E00FAE493A3F8E493A3C8C582C8CAC583CAEC
:100D2E00F0A3C8C582C8CAC583CADFE9DEE780BEA4
:010F7400007C
:0C066600E6FC08E6FD08E6FE08E6FF22C0
:0C067200E0FCA3E0FDA3E0FEA3E0FF22FB
:0C067E00E2FC08E2FD08E2FE08E2FF22B8
:10068A00E493FC740193FD740293FE740393FF22B6
:0D069A00E6FB08E6F908E6FA08E6CBF822D0
:0C06A700E0F8A3E0F9A3E0FAA3E0FB22D6
:0D06B300E2FB08E2F908E2FA08E2CBF822C7
:1006C000E493F8740193F9740293FA740393FB2290
:1006D000D083D082E493F608740193F608740293F1
:0906E000F608740393F674047328
:1006E900A8828583F0D083D08212070012070012F6
:1006F9000700120700E473E493A3C583C5F0C5831B
:10070900C8C582C8F0A3C583C5F0C583C8C582C85A
:0107190022BD
:10071A00D083D082E493F208740193F208740293AE
:09072A00F208740393F2740473E5
:00000001FF
